{
  "_format": "hh-sol-artifact-1",
  "contractName": "AmuletGenerator",
  "sourceName": "contracts/AmuletGenerator.sol",
  "abi": [
    {
      "inputs": [],
      "stateMutability": "nonpayable",
      "type": "constructor"
    },
    {
      "anonymous": false,
      "inputs": [
        {
          "indexed": true,
          "internalType": "address",
          "name": "owner",
          "type": "address"
        },
        {
          "indexed": false,
          "internalType": "uint256",
          "name": "id",
          "type": "uint256"
        },
        {
          "indexed": false,
          "internalType": "uint256",
          "name": "power",
          "type": "uint256"
        },
        {
          "indexed": false,
          "internalType": "uint256",
          "name": "rarity",
          "type": "uint256"
        }
      ],
      "name": "AmuletCreated",
      "type": "event"
    },
    {
      "inputs": [],
      "name": "AMULET_PRICE",
      "outputs": [
        {
          "internalType": "uint256",
          "name": "",
          "type": "uint256"
        }
      ],
      "stateMutability": "view",
      "type": "function"
    },
    {
      "inputs": [],
      "name": "buyAmulet",
      "outputs": [],
      "stateMutability": "payable",
      "type": "function"
    },
    {
      "inputs": [
        {
          "internalType": "address",
          "name": "_owner",
          "type": "address"
        }
      ],
      "name": "getAmuletsByOwner",
      "outputs": [
        {
          "components": [
            {
              "internalType": "uint256",
              "name": "id",
              "type": "uint256"
            },
            {
              "internalType": "uint256",
              "name": "power",
              "type": "uint256"
            },
            {
              "internalType": "uint256",
              "name": "rarity",
              "type": "uint256"
            }
          ],
          "internalType": "struct AmuletGenerator.Amulet[]",
          "name": "",
          "type": "tuple[]"
        }
      ],
      "stateMutability": "view",
      "type": "function"
    },
    {
      "inputs": [
        {
          "internalType": "address",
          "name": "_owner",
          "type": "address"
        }
      ],
      "name": "getUserPower",
      "outputs": [
        {
          "internalType": "uint256",
          "name": "",
          "type": "uint256"
        }
      ],
      "stateMutability": "view",
      "type": "function"
    },
    {
      "inputs": [],
      "name": "nextAmuletId",
      "outputs": [
        {
          "internalType": "uint256",
          "name": "",
          "type": "uint256"
        }
      ],
      "stateMutability": "view",
      "type": "function"
    },
    {
      "inputs": [],
      "name": "owner",
      "outputs": [
        {
          "internalType": "address",
          "name": "",
          "type": "address"
        }
      ],
      "stateMutability": "view",
      "type": "function"
    },
    {
      "inputs": [
        {
          "internalType": "uint256",
          "name": "amuletId",
          "type": "uint256"
        }
      ],
      "name": "upgradeAmulet",
      "outputs": [],
      "stateMutability": "payable",
      "type": "function"
    },
    {
      "inputs": [
        {
          "internalType": "uint256",
          "name": "amuletId",
          "type": "uint256"
        }
      ],
      "name": "useAmulet",
      "outputs": [],
      "stateMutability": "nonpayable",
      "type": "function"
    },
    {
      "inputs": [
        {
          "internalType": "address",
          "name": "",
          "type": "address"
        },
        {
          "internalType": "uint256",
          "name": "",
          "type": "uint256"
        }
      ],
      "name": "userAmulets",
      "outputs": [
        {
          "internalType": "uint256",
          "name": "id",
          "type": "uint256"
        },
        {
          "internalType": "uint256",
          "name": "power",
          "type": "uint256"
        },
        {
          "internalType": "uint256",
          "name": "rarity",
          "type": "uint256"
        }
      ],
      "stateMutability": "view",
      "type": "function"
    },
    {
      "inputs": [
        {
          "internalType": "address",
          "name": "",
          "type": "address"
        }
      ],
      "name": "userPower",
      "outputs": [
        {
          "internalType": "uint256",
          "name": "",
          "type": "uint256"
        }
      ],
      "stateMutability": "view",
      "type": "function"
    }
  ],
  "bytecode": "0x608060405260018055348015601357600080fd5b50336000806101000a81548173ffffffffffffffffffffffffffffffffffffffff021916908373ffffffffffffffffffffffffffffffffffffffff16021790555061102e806100636000396000f3fe6080604052600436106100915760003560e01c8063a43e825a11610059578063a43e825a14610161578063a77612d81461018c578063bf2ec008146101cb578063c713c358146101f4578063d67303281461021f57610091565b806302931e59146100965780634d6e3452146100d35780636fedce72146101105780638da5cb5b1461012c5780638e58147a14610157575b600080fd5b3480156100a257600080fd5b506100bd60048036038101906100b89190610970565b61025c565b6040516100ca91906109b6565b60405180910390f35b3480156100df57600080fd5b506100fa60048036038101906100f59190610970565b6102a5565b60405161010791906109b6565b60405180910390f35b61012a600480360381019061012591906109fd565b6102bd565b005b34801561013857600080fd5b5061014161043d565b60405161014e9190610a39565b60405180910390f35b61015f610461565b005b34801561016d57600080fd5b506101766105ed565b60405161018391906109b6565b60405180910390f35b34801561019857600080fd5b506101b360048036038101906101ae9190610a54565b6105f8565b6040516101c293929190610a94565b60405180910390f35b3480156101d757600080fd5b506101f260048036038101906101ed91906109fd565b61063f565b005b34801561020057600080fd5b50610209610807565b60405161021691906109b6565b60405180910390f35b34801561022b57600080fd5b5061024660048036038101906102419190610970565b61080d565b6040516102539190610bcb565b60405180910390f35b6000600360008373ffffffffffffffffffffffffffffffffffffffff1673ffffffffffffffffffffffffffffffffffffffff168152602001908152602001600020549050919050565b60036020528060005260406000206000915090505481565b60003411610300576040517f08c379a00000000000000000000000000000000000000000000000000000000081526004016102f790610c4a565b60405180910390fd5b6000662386f26fc10000346103159190610cc8565b9050600061032e8260026103299190610cf9565b6108c9565b90506000600260003373ffffffffffffffffffffffffffffffffffffffff1673ffffffffffffffffffffffffffffffffffffffff168152602001908152602001600020905060005b81805490508110156103fe578482828154811061039657610395610d3b565b5b906000526020600020906003020160000154036103f157828282815481106103c1576103c0610d3b565b5b906000526020600020906003020160010160008282546103e19190610d6a565b925050819055505050505061043a565b8080600101915050610376565b506040517f08c379a000000000000000000000000000000000000000000000000000000000815260040161043190610dea565b60405180910390fd5b50565b60008054906101000a900473ffffffffffffffffffffffffffffffffffffffff1681565b662386f26fc1000034146104aa576040517f08c379a00000000000000000000000000000000000000000000000000000000081526004016104a190610e56565b60405180910390fd5b60006104b660646108c9565b9050600060016104c660036108c9565b6104d09190610d6a565b9050600060405180606001604052806001548152602001848152602001838152509050600260003373ffffffffffffffffffffffffffffffffffffffff1673ffffffffffffffffffffffffffffffffffffffff16815260200190815260200160002081908060018154018082558091505060019003906000526020600020906003020160009091909190915060008201518160000155602082015181600101556040820151816002015550503373ffffffffffffffffffffffffffffffffffffffff167f7bd9bd0682bd5f206d05055dd8360fdc0a0c77aac25265ad3d6bb83b2c44d4da60015485856040516105c893929190610a94565b60405180910390a2600160008154809291906105e390610e76565b9190505550505050565b662386f26fc1000081565b6002602052816000526040600020818154811061061457600080fd5b9060005260206000209060030201600091509150508060000154908060010154908060020154905083565b6000600260003373ffffffffffffffffffffffffffffffffffffffff1673ffffffffffffffffffffffffffffffffffffffff16815260200190815260200160002090506000805b82805490508110156106d257838382815481106106a6576106a5610d3b565b5b906000526020600020906003020160000154036106c5578091506106d2565b8080600101915050610686565b508181815481106106e6576106e5610d3b565b5b906000526020600020906003020160010154600360003373ffffffffffffffffffffffffffffffffffffffff1673ffffffffffffffffffffffffffffffffffffffff16815260200190815260200160002060008282546107469190610d6a565b92505081905550816001838054905061075f9190610ebe565b815481106107705761076f610d3b565b5b906000526020600020906003020182828154811061079157610790610d3b565b5b9060005260206000209060030201600082015481600001556001820154816001015560028201548160020155905050818054806107d1576107d0610ef2565b5b60019003818190600052602060002090600302016000808201600090556001820160009055600282016000905550509055505050565b60015481565b6060600260008373ffffffffffffffffffffffffffffffffffffffff1673ffffffffffffffffffffffffffffffffffffffff168152602001908152602001600020805480602002602001604051908101604052809291908181526020016000905b828210156108be578382906000526020600020906003020160405180606001604052908160008201548152602001600182015481526020016002820154815250508152602001906001019061086e565b505050509050919050565b60008142336001546040516020016108e393929190610f8a565b6040516020818303038152906040528051906020012060001c6109069190610fc7565b9050919050565b600080fd5b600073ffffffffffffffffffffffffffffffffffffffff82169050919050565b600061093d82610912565b9050919050565b61094d81610932565b811461095857600080fd5b50565b60008135905061096a81610944565b92915050565b6000602082840312156109865761098561090d565b5b60006109948482850161095b565b91505092915050565b6000819050919050565b6109b08161099d565b82525050565b60006020820190506109cb60008301846109a7565b92915050565b6109da8161099d565b81146109e557600080fd5b50565b6000813590506109f7816109d1565b92915050565b600060208284031215610a1357610a1261090d565b5b6000610a21848285016109e8565b91505092915050565b610a3381610932565b82525050565b6000602082019050610a4e6000830184610a2a565b92915050565b60008060408385031215610a6b57610a6a61090d565b5b6000610a798582860161095b565b9250506020610a8a858286016109e8565b9150509250929050565b6000606082019050610aa960008301866109a7565b610ab660208301856109a7565b610ac360408301846109a7565b949350505050565b600081519050919050565b600082825260208201905092915050565b6000819050602082019050919050565b610b008161099d565b82525050565b606082016000820151610b1c6000850182610af7565b506020820151610b2f6020850182610af7565b506040820151610b426040850182610af7565b50505050565b6000610b548383610b06565b60608301905092915050565b6000602082019050919050565b6000610b7882610acb565b610b828185610ad6565b9350610b8d83610ae7565b8060005b83811015610bbe578151610ba58882610b48565b9750610bb083610b60565b925050600181019050610b91565b5085935050505092915050565b60006020820190508181036000830152610be58184610b6d565b905092915050565b600082825260208201905092915050565b7f4d7573742073656e6420657468657220746f2075706772616465000000000000600082015250565b6000610c34601a83610bed565b9150610c3f82610bfe565b602082019050919050565b60006020820190508181036000830152610c6381610c27565b9050919050565b7f4e487b7100000000000000000000000000000000000000000000000000000000600052601260045260246000fd5b7f4e487b7100000000000000000000000000000000000000000000000000000000600052601160045260246000fd5b6000610cd38261099d565b9150610cde8361099d565b925082610cee57610ced610c6a565b5b828204905092915050565b6000610d048261099d565b9150610d0f8361099d565b9250828202610d1d8161099d565b91508282048414831517610d3457610d33610c99565b5b5092915050565b7f4e487b7100000000000000000000000000000000000000000000000000000000600052603260045260246000fd5b6000610d758261099d565b9150610d808361099d565b9250828201905080821115610d9857610d97610c99565b5b92915050565b7f416d756c6574206e6f7420666f756e6400000000000000000000000000000000600082015250565b6000610dd4601083610bed565b9150610ddf82610d9e565b602082019050919050565b60006020820190508181036000830152610e0381610dc7565b9050919050565b7f496e636f727265637420457468657220616d6f756e7400000000000000000000600082015250565b6000610e40601683610bed565b9150610e4b82610e0a565b602082019050919050565b60006020820190508181036000830152610e6f81610e33565b9050919050565b6000610e818261099d565b91507fffffffffffffffffffffffffffffffffffffffffffffffffffffffffffffffff8203610eb357610eb2610c99565b5b600182019050919050565b6000610ec98261099d565b9150610ed48361099d565b9250828203905081811115610eec57610eeb610c99565b5b92915050565b7f4e487b7100000000000000000000000000000000000000000000000000000000600052603160045260246000fd5b6000819050919050565b610f3c610f378261099d565b610f21565b82525050565b60008160601b9050919050565b6000610f5a82610f42565b9050919050565b6000610f6c82610f4f565b9050919050565b610f84610f7f82610932565b610f61565b82525050565b6000610f968286610f2b565b602082019150610fa68285610f73565b601482019150610fb68284610f2b565b602082019150819050949350505050565b6000610fd28261099d565b9150610fdd8361099d565b925082610fed57610fec610c6a565b5b82820690509291505056fea2646970667358221220d398e5f14c6517160038ec3bd17d49b7476b3b16c28b53b16532271f6657912c64736f6c634300081c0033",
  "linkReferences": {},
  "deployedLinkReferences": {}
}