{
  "_format": "hh-sol-artifact-1",
  "contractName": "AmuletGenerator",
  "sourceName": "contracts/AmuletGenerator.sol",
  "abi": [
    {
      "inputs": [],
      "stateMutability": "nonpayable",
      "type": "constructor"
    },
    {
      "anonymous": false,
      "inputs": [
        {
          "indexed": true,
          "internalType": "address",
          "name": "owner",
          "type": "address"
        },
        {
          "indexed": false,
          "internalType": "uint256",
          "name": "id",
          "type": "uint256"
        },
        {
          "indexed": false,
          "internalType": "uint256",
          "name": "power",
          "type": "uint256"
        },
        {
          "indexed": false,
          "internalType": "uint256",
          "name": "magic",
          "type": "uint256"
        },
        {
          "indexed": false,
          "internalType": "uint256",
          "name": "rarity",
          "type": "uint256"
        }
      ],
      "name": "AmuletCreated",
      "type": "event"
    },
    {
      "inputs": [],
      "name": "AMULET_PRICE",
      "outputs": [
        {
          "internalType": "uint256",
          "name": "",
          "type": "uint256"
        }
      ],
      "stateMutability": "view",
      "type": "function"
    },
    {
      "inputs": [],
      "name": "buyAmulet",
      "outputs": [],
      "stateMutability": "payable",
      "type": "function"
    },
    {
      "inputs": [
        {
          "internalType": "address",
          "name": "_owner",
          "type": "address"
        }
      ],
      "name": "getAmuletsByOwner",
      "outputs": [
        {
          "components": [
            {
              "internalType": "uint256",
              "name": "id",
              "type": "uint256"
            },
            {
              "internalType": "uint256",
              "name": "power",
              "type": "uint256"
            },
            {
              "internalType": "uint256",
              "name": "magic",
              "type": "uint256"
            },
            {
              "internalType": "uint256",
              "name": "rarity",
              "type": "uint256"
            }
          ],
          "internalType": "struct AmuletGenerator.Amulet[]",
          "name": "",
          "type": "tuple[]"
        }
      ],
      "stateMutability": "view",
      "type": "function"
    },
    {
      "inputs": [],
      "name": "nextAmuletId",
      "outputs": [
        {
          "internalType": "uint256",
          "name": "",
          "type": "uint256"
        }
      ],
      "stateMutability": "view",
      "type": "function"
    },
    {
      "inputs": [],
      "name": "owner",
      "outputs": [
        {
          "internalType": "address",
          "name": "",
          "type": "address"
        }
      ],
      "stateMutability": "view",
      "type": "function"
    },
    {
      "inputs": [
        {
          "internalType": "address",
          "name": "",
          "type": "address"
        },
        {
          "internalType": "uint256",
          "name": "",
          "type": "uint256"
        }
      ],
      "name": "userAmulets",
      "outputs": [
        {
          "internalType": "uint256",
          "name": "id",
          "type": "uint256"
        },
        {
          "internalType": "uint256",
          "name": "power",
          "type": "uint256"
        },
        {
          "internalType": "uint256",
          "name": "magic",
          "type": "uint256"
        },
        {
          "internalType": "uint256",
          "name": "rarity",
          "type": "uint256"
        }
      ],
      "stateMutability": "view",
      "type": "function"
    },
    {
      "inputs": [],
      "name": "withdraw",
      "outputs": [],
      "stateMutability": "nonpayable",
      "type": "function"
    }
  ],
  "bytecode": "0x608060405260018055348015601357600080fd5b50336000806101000a81548173ffffffffffffffffffffffffffffffffffffffff021916908373ffffffffffffffffffffffffffffffffffffffff160217905550610b68806100636000396000f3fe6080604052600436106100705760003560e01c8063a43e825a1161004e578063a43e825a146100c1578063a77612d8146100ec578063c713c3581461012c578063d67303281461015757610070565b80633ccfd60b146100755780638da5cb5b1461008c5780638e58147a146100b7575b600080fd5b34801561008157600080fd5b5061008a610194565b005b34801561009857600080fd5b506100a161028b565b6040516100ae9190610605565b60405180910390f35b6100bf6102af565b005b3480156100cd57600080fd5b506100d661045c565b6040516100e39190610639565b60405180910390f35b3480156100f857600080fd5b50610113600480360381019061010e91906106b1565b610467565b60405161012394939291906106f1565b60405180910390f35b34801561013857600080fd5b506101416104b4565b60405161014e9190610639565b60405180910390f35b34801561016357600080fd5b5061017e60048036038101906101799190610736565b6104ba565b60405161018b9190610876565b60405180910390f35b60008054906101000a900473ffffffffffffffffffffffffffffffffffffffff1673ffffffffffffffffffffffffffffffffffffffff163373ffffffffffffffffffffffffffffffffffffffff1614610222576040517f08c379a0000000000000000000000000000000000000000000000000000000008152600401610219906108f5565b60405180910390fd5b60008054906101000a900473ffffffffffffffffffffffffffffffffffffffff1673ffffffffffffffffffffffffffffffffffffffff166108fc479081150290604051600060405180830381858888f19350505050158015610288573d6000803e3d6000fd5b50565b60008054906101000a900473ffffffffffffffffffffffffffffffffffffffff1681565b662386f26fc1000034146102f8576040517f08c379a00000000000000000000000000000000000000000000000000000000081526004016102ef90610961565b60405180910390fd5b60006103046064610580565b905060006103126064610580565b9050600060016103226003610580565b61032c91906109b0565b9050600060405180608001604052806001548152602001858152602001848152602001838152509050600260003373ffffffffffffffffffffffffffffffffffffffff1673ffffffffffffffffffffffffffffffffffffffff1681526020019081526020016000208190806001815401808255809150506001900390600052602060002090600402016000909190919091506000820151816000015560208201518160010155604082015181600201556060820151816003015550503373ffffffffffffffffffffffffffffffffffffffff167f43353c9cf3c96a7ba2f773b2bae144c2b0cad6752132d97b4874cbc0efa2c22960015486868660405161043694939291906106f1565b60405180910390a260016000815480929190610451906109e4565b919050555050505050565b662386f26fc1000081565b6002602052816000526040600020818154811061048357600080fd5b9060005260206000209060040201600091509150508060000154908060010154908060020154908060030154905084565b60015481565b6060600260008373ffffffffffffffffffffffffffffffffffffffff1673ffffffffffffffffffffffffffffffffffffffff168152602001908152602001600020805480602002602001604051908101604052809291908181526020016000905b8282101561057557838290600052602060002090600402016040518060800160405290816000820154815260200160018201548152602001600282015481526020016003820154815250508152602001906001019061051b565b505050509050919050565b600081423360015460405160200161059a93929190610a95565b6040516020818303038152906040528051906020012060001c6105bd9190610b01565b9050919050565b600073ffffffffffffffffffffffffffffffffffffffff82169050919050565b60006105ef826105c4565b9050919050565b6105ff816105e4565b82525050565b600060208201905061061a60008301846105f6565b92915050565b6000819050919050565b61063381610620565b82525050565b600060208201905061064e600083018461062a565b92915050565b600080fd5b610662816105e4565b811461066d57600080fd5b50565b60008135905061067f81610659565b92915050565b61068e81610620565b811461069957600080fd5b50565b6000813590506106ab81610685565b92915050565b600080604083850312156106c8576106c7610654565b5b60006106d685828601610670565b92505060206106e78582860161069c565b9150509250929050565b6000608082019050610706600083018761062a565b610713602083018661062a565b610720604083018561062a565b61072d606083018461062a565b95945050505050565b60006020828403121561074c5761074b610654565b5b600061075a84828501610670565b91505092915050565b600081519050919050565b600082825260208201905092915050565b6000819050602082019050919050565b61079881610620565b82525050565b6080820160008201516107b4600085018261078f565b5060208201516107c7602085018261078f565b5060408201516107da604085018261078f565b5060608201516107ed606085018261078f565b50505050565b60006107ff838361079e565b60808301905092915050565b6000602082019050919050565b600061082382610763565b61082d818561076e565b93506108388361077f565b8060005b8381101561086957815161085088826107f3565b975061085b8361080b565b92505060018101905061083c565b5085935050505092915050565b600060208201905081810360008301526108908184610818565b905092915050565b600082825260208201905092915050565b7f4e6f742074686520636f6e7472616374206f776e657200000000000000000000600082015250565b60006108df601683610898565b91506108ea826108a9565b602082019050919050565b6000602082019050818103600083015261090e816108d2565b9050919050565b7f496e636f727265637420457468657220616d6f756e7400000000000000000000600082015250565b600061094b601683610898565b915061095682610915565b602082019050919050565b6000602082019050818103600083015261097a8161093e565b9050919050565b7f4e487b7100000000000000000000000000000000000000000000000000000000600052601160045260246000fd5b60006109bb82610620565b91506109c683610620565b92508282019050808211156109de576109dd610981565b5b92915050565b60006109ef82610620565b91507fffffffffffffffffffffffffffffffffffffffffffffffffffffffffffffffff8203610a2157610a20610981565b5b600182019050919050565b6000819050919050565b610a47610a4282610620565b610a2c565b82525050565b60008160601b9050919050565b6000610a6582610a4d565b9050919050565b6000610a7782610a5a565b9050919050565b610a8f610a8a826105e4565b610a6c565b82525050565b6000610aa18286610a36565b602082019150610ab18285610a7e565b601482019150610ac18284610a36565b602082019150819050949350505050565b7f4e487b7100000000000000000000000000000000000000000000000000000000600052601260045260246000fd5b6000610b0c82610620565b9150610b1783610620565b925082610b2757610b26610ad2565b5b82820690509291505056fea26469706673582212200059b3c8631534d44be697f276c976998846f9816ab4a988af59ee4437caeee064736f6c634300081c0033",
  "linkReferences": {},
  "deployedLinkReferences": {}
}